{
  "_format": "hh-sol-artifact-1",
  "contractName": "CampaignFactory",
  "sourceName": "contracts/Campaign.sol",
  "abi": [
    {
      "inputs": [
        {
          "internalType": "uint256",
          "name": "minimum",
          "type": "uint256"
        },
        {
          "internalType": "string",
          "name": "title",
          "type": "string"
        },
        {
          "internalType": "string",
          "name": "description",
          "type": "string"
        },
        {
          "internalType": "string",
          "name": "imageUrl",
          "type": "string"
        }
      ],
      "name": "createCampaign",
      "outputs": [],
      "stateMutability": "nonpayable",
      "type": "function"
    },
    {
      "inputs": [
        {
          "internalType": "uint256",
          "name": "",
          "type": "uint256"
        }
      ],
      "name": "deployedCampaigns",
      "outputs": [
        {
          "internalType": "address",
          "name": "campaignAddress",
          "type": "address"
        },
        {
          "internalType": "uint256",
          "name": "minimumContribution",
          "type": "uint256"
        },
        {
          "internalType": "string",
          "name": "title",
          "type": "string"
        },
        {
          "internalType": "string",
          "name": "description",
          "type": "string"
        },
        {
          "internalType": "string",
          "name": "imageUrl",
          "type": "string"
        }
      ],
      "stateMutability": "view",
      "type": "function"
    },
    {
      "inputs": [],
      "name": "getDeployedCampaigns",
      "outputs": [
        {
          "components": [
            {
              "internalType": "address",
              "name": "campaignAddress",
              "type": "address"
            },
            {
              "internalType": "uint256",
              "name": "minimumContribution",
              "type": "uint256"
            },
            {
              "internalType": "string",
              "name": "title",
              "type": "string"
            },
            {
              "internalType": "string",
              "name": "description",
              "type": "string"
            },
            {
              "internalType": "string",
              "name": "imageUrl",
              "type": "string"
            }
          ],
          "internalType": "struct CampaignFactory.CampaignDetails[]",
          "name": "",
          "type": "tuple[]"
        }
      ],
      "stateMutability": "view",
      "type": "function"
    }
  ],
  "bytecode": "0x608060405234801561001057600080fd5b50612c84806100206000396000f3fe60806040523480156200001157600080fd5b5060043610620000465760003560e01c8063339d50a5146200004b5780634acb9d4f14620000855780638ef0392814620000a7575b600080fd5b62000069600480360381019062000063919062000719565b620000c7565b6040516200007c9594939291906200083b565b60405180910390f35b6200008f620002de565b6040516200009e919062000a7f565b60405180910390f35b620000c56004803603810190620000bf919062000bf4565b6200056d565b005b60008181548110620000d857600080fd5b90600052602060002090600502016000915090508060000160009054906101000a900473ffffffffffffffffffffffffffffffffffffffff1690806001015490806002018054620001299062000cf2565b80601f0160208091040260200160405190810160405280929190818152602001828054620001579062000cf2565b8015620001a85780601f106200017c57610100808354040283529160200191620001a8565b820191906000526020600020905b8154815290600101906020018083116200018a57829003601f168201915b505050505090806003018054620001bf9062000cf2565b80601f0160208091040260200160405190810160405280929190818152602001828054620001ed9062000cf2565b80156200023e5780601f1062000212576101008083540402835291602001916200023e565b820191906000526020600020905b8154815290600101906020018083116200022057829003601f168201915b505050505090806004018054620002559062000cf2565b80601f0160208091040260200160405190810160405280929190818152602001828054620002839062000cf2565b8015620002d45780601f10620002a857610100808354040283529160200191620002d4565b820191906000526020600020905b815481529060010190602001808311620002b657829003601f168201915b5050505050905085565b60606000805480602002602001604051908101604052809291908181526020016000905b828210156200056457838290600052602060002090600502016040518060a00160405290816000820160009054906101000a900473ffffffffffffffffffffffffffffffffffffffff1673ffffffffffffffffffffffffffffffffffffffff1673ffffffffffffffffffffffffffffffffffffffff16815260200160018201548152602001600282018054620003989062000cf2565b80601f0160208091040260200160405190810160405280929190818152602001828054620003c69062000cf2565b8015620004175780601f10620003eb5761010080835404028352916020019162000417565b820191906000526020600020905b815481529060010190602001808311620003f957829003601f168201915b50505050508152602001600382018054620004329062000cf2565b80601f0160208091040260200160405190810160405280929190818152602001828054620004609062000cf2565b8015620004b15780601f106200048557610100808354040283529160200191620004b1565b820191906000526020600020905b8154815290600101906020018083116200049357829003601f168201915b50505050508152602001600482018054620004cc9062000cf2565b80601f0160208091040260200160405190810160405280929190818152602001828054620004fa9062000cf2565b80156200054b5780601f106200051f576101008083540402835291602001916200054b565b820191906000526020600020905b8154815290600101906020018083116200052d57829003601f168201915b5050505050815250508152602001906001019062000302565b50505050905090565b600084338585856040516200058290620006bc565b6200059295949392919062000d27565b604051809103906000f080158015620005af573d6000803e3d6000fd5b50905060006040518060a001604052808373ffffffffffffffffffffffffffffffffffffffff16815260200187815260200186815260200185815260200184815250908060018154018082558091505060019003906000526020600020906005020160009091909190915060008201518160000160006101000a81548173ffffffffffffffffffffffffffffffffffffffff021916908373ffffffffffffffffffffffffffffffffffffffff16021790555060208201518160010155604082015181600201908162000682919062000f6b565b5060608201518160030190816200069a919062000f6b565b506080820151816004019081620006b2919062000f6b565b5050505050505050565b611bfc806200105383390190565b6000604051905090565b600080fd5b600080fd5b6000819050919050565b620006f381620006de565b8114620006ff57600080fd5b50565b6000813590506200071381620006e8565b92915050565b600060208284031215620007325762000731620006d4565b5b6000620007428482850162000702565b91505092915050565b600073ffffffffffffffffffffffffffffffffffffffff82169050919050565b600062000778826200074b565b9050919050565b6200078a816200076b565b82525050565b6200079b81620006de565b82525050565b600081519050919050565b600082825260208201905092915050565b60005b83811015620007dd578082015181840152602081019050620007c0565b60008484015250505050565b6000601f19601f8301169050919050565b60006200080782620007a1565b620008138185620007ac565b935062000825818560208601620007bd565b6200083081620007e9565b840191505092915050565b600060a0820190506200085260008301886200077f565b62000861602083018762000790565b8181036040830152620008758186620007fa565b905081810360608301526200088b8185620007fa565b90508181036080830152620008a18184620007fa565b90509695505050505050565b600081519050919050565b600082825260208201905092915050565b6000819050602082019050919050565b620008e4816200076b565b82525050565b620008f581620006de565b82525050565b600082825260208201905092915050565b60006200091982620007a1565b620009258185620008fb565b935062000937818560208601620007bd565b6200094281620007e9565b840191505092915050565b600060a083016000830151620009676000860182620008d9565b5060208301516200097c6020860182620008ea565b50604083015184820360408601526200099682826200090c565b91505060608301518482036060860152620009b282826200090c565b91505060808301518482036080860152620009ce82826200090c565b9150508091505092915050565b6000620009e983836200094d565b905092915050565b6000602082019050919050565b600062000a0b82620008ad565b62000a178185620008b8565b93508360208202850162000a2b85620008c9565b8060005b8581101562000a6d578484038952815162000a4b8582620009db565b945062000a5883620009f1565b925060208a0199505060018101905062000a2f565b50829750879550505050505092915050565b6000602082019050818103600083015262000a9b8184620009fe565b905092915050565b600080fd5b600080fd5b7f4e487b7100000000000000000000000000000000000000000000000000000000600052604160045260246000fd5b62000ae782620007e9565b810181811067ffffffffffffffff8211171562000b095762000b0862000aad565b5b80604052505050565b600062000b1e620006ca565b905062000b2c828262000adc565b919050565b600067ffffffffffffffff82111562000b4f5762000b4e62000aad565b5b62000b5a82620007e9565b9050602081019050919050565b82818337600083830152505050565b600062000b8d62000b878462000b31565b62000b12565b90508281526020810184848401111562000bac5762000bab62000aa8565b5b62000bb984828562000b67565b509392505050565b600082601f83011262000bd95762000bd862000aa3565b5b813562000beb84826020860162000b76565b91505092915050565b6000806000806080858703121562000c115762000c10620006d4565b5b600062000c218782880162000702565b945050602085013567ffffffffffffffff81111562000c455762000c44620006d9565b5b62000c538782880162000bc1565b935050604085013567ffffffffffffffff81111562000c775762000c76620006d9565b5b62000c858782880162000bc1565b925050606085013567ffffffffffffffff81111562000ca95762000ca8620006d9565b5b62000cb78782880162000bc1565b91505092959194509250565b7f4e487b7100000000000000000000000000000000000000000000000000000000600052602260045260246000fd5b6000600282049050600182168062000d0b57607f821691505b60208210810362000d215762000d2062000cc3565b5b50919050565b600060a08201905062000d3e600083018862000790565b62000d4d60208301876200077f565b818103604083015262000d618186620007fa565b9050818103606083015262000d778185620007fa565b9050818103608083015262000d8d8184620007fa565b90509695505050505050565b60008190508160005260206000209050919050565b60006020601f8301049050919050565b600082821b905092915050565b60006008830262000dfd7fffffffffffffffffffffffffffffffffffffffffffffffffffffffffffffffff8262000dbe565b62000e09868362000dbe565b95508019841693508086168417925050509392505050565b6000819050919050565b600062000e4c62000e4662000e4084620006de565b62000e21565b620006de565b9050919050565b6000819050919050565b62000e688362000e2b565b62000e8062000e778262000e53565b84845462000dcb565b825550505050565b600090565b62000e9762000e88565b62000ea481848462000e5d565b505050565b5b8181101562000ecc5762000ec060008262000e8d565b60018101905062000eaa565b5050565b601f82111562000f1b5762000ee58162000d99565b62000ef08462000dae565b8101602085101562000f00578190505b62000f1862000f0f8562000dae565b83018262000ea9565b50505b505050565b600082821c905092915050565b600062000f406000198460080262000f20565b1980831691505092915050565b600062000f5b838362000f2d565b9150826002028217905092915050565b62000f7682620007a1565b67ffffffffffffffff81111562000f925762000f9162000aad565b5b62000f9e825462000cf2565b62000fab82828562000ed0565b600060209050601f83116001811462000fe3576000841562000fce578287015190505b62000fda858262000f4d565b8655506200104a565b601f19841662000ff38662000d99565b60005b828110156200101d5784890151825560018201915060208501945060208101905062000ff6565b868310156200103d578489015162001039601f89168262000f2d565b8355505b6001600288020188555050505b50505050505056fe60806040523480156200001157600080fd5b5060405162001bfc38038062001bfc8339818101604052810190620000379190620002f2565b836000806101000a81548173ffffffffffffffffffffffffffffffffffffffff021916908373ffffffffffffffffffffffffffffffffffffffff160217905550806001908162000088919062000618565b5082600290816200009a919062000618565b508160039081620000ac919062000618565b50846004819055505050505050620006ff565b6000604051905090565b600080fd5b600080fd5b6000819050919050565b620000e881620000d3565b8114620000f457600080fd5b50565b6000815190506200010881620000dd565b92915050565b600073ffffffffffffffffffffffffffffffffffffffff82169050919050565b60006200013b826200010e565b9050919050565b6200014d816200012e565b81146200015957600080fd5b50565b6000815190506200016d8162000142565b92915050565b600080fd5b600080fd5b6000601f19601f8301169050919050565b7f4e487b7100000000000000000000000000000000000000000000000000000000600052604160045260246000fd5b620001c8826200017d565b810181811067ffffffffffffffff82111715620001ea57620001e96200018e565b5b80604052505050565b6000620001ff620000bf565b90506200020d8282620001bd565b919050565b600067ffffffffffffffff82111562000230576200022f6200018e565b5b6200023b826200017d565b9050602081019050919050565b60005b83811015620002685780820151818401526020810190506200024b565b60008484015250505050565b60006200028b620002858462000212565b620001f3565b905082815260208101848484011115620002aa57620002a962000178565b5b620002b784828562000248565b509392505050565b600082601f830112620002d757620002d662000173565b5b8151620002e984826020860162000274565b91505092915050565b600080600080600060a08688031215620003115762000310620000c9565b5b60006200032188828901620000f7565b955050602062000334888289016200015c565b945050604086015167ffffffffffffffff811115620003585762000357620000ce565b5b6200036688828901620002bf565b935050606086015167ffffffffffffffff8111156200038a5762000389620000ce565b5b6200039888828901620002bf565b925050608086015167ffffffffffffffff811115620003bc57620003bb620000ce565b5b620003ca88828901620002bf565b9150509295509295909350565b600081519050919050565b7f4e487b7100000000000000000000000000000000000000000000000000000000600052602260045260246000fd5b600060028204905060018216806200042a57607f821691505b60208210810362000440576200043f620003e2565b5b50919050565b60008190508160005260206000209050919050565b60006020601f8301049050919050565b600082821b905092915050565b600060088302620004aa7fffffffffffffffffffffffffffffffffffffffffffffffffffffffffffffffff826200046b565b620004b686836200046b565b95508019841693508086168417925050509392505050565b6000819050919050565b6000620004f9620004f3620004ed84620000d3565b620004ce565b620000d3565b9050919050565b6000819050919050565b6200051583620004d8565b6200052d620005248262000500565b84845462000478565b825550505050565b600090565b6200054462000535565b620005518184846200050a565b505050565b5b8181101562000579576200056d6000826200053a565b60018101905062000557565b5050565b601f821115620005c857620005928162000446565b6200059d846200045b565b81016020851015620005ad578190505b620005c5620005bc856200045b565b83018262000556565b50505b505050565b600082821c905092915050565b6000620005ed60001984600802620005cd565b1980831691505092915050565b6000620006088383620005da565b9150826002028217905092915050565b6200062382620003d7565b67ffffffffffffffff8111156200063f576200063e6200018e565b5b6200064b825462000411565b620006588282856200057d565b600060209050601f8311600181146200069057600084156200067b578287015190505b620006878582620005fa565b865550620006f7565b601f198416620006a08662000446565b60005b82811015620006ca57848901518255600182019150602085019450602081019050620006a3565b86831015620006ea5784890151620006e6601f891682620005da565b8355505b6001600288020188555050505b505050505050565b6114ed806200070f6000396000f3fe6080604052600436106100dd5760003560e01c806382fde0931161007f5780639fb42b1f116100595780639fb42b1f146102bb578063aba83150146102e6578063d7bb99ba14610311578063d7d1bbdb1461031b576100dd565b806382fde0931461023c5780638a9cfd5514610267578063937e09b114610290576100dd565b8063481c6a75116100bb578063481c6a751461017a5780634a79d50c146101a55780637284e416146101d057806381d12c58146101fb576100dd565b806303441006146100e25780630a1443911461010b5780634051ddac14610148575b600080fd5b3480156100ee57600080fd5b5061010960048036038101906101049190610c7d565b610344565b005b34801561011757600080fd5b50610132600480360381019061012d9190610d08565b61047d565b60405161013f9190610d50565b60405180910390f35b34801561015457600080fd5b5061015d61049d565b604051610171989796959493929190610e19565b60405180910390f35b34801561018657600080fd5b5061018f610699565b60405161019c9190610eac565b60405180910390f35b3480156101b157600080fd5b506101ba6106bd565b6040516101c79190610ec7565b60405180910390f35b3480156101dc57600080fd5b506101e561074b565b6040516101f29190610ec7565b60405180910390f35b34801561020757600080fd5b50610222600480360381019061021d9190610c7d565b6107d9565b604051610233959493929190610ee9565b60405180910390f35b34801561024857600080fd5b506102516108c4565b60405161025e9190610f43565b60405180910390f35b34801561027357600080fd5b5061028e60048036038101906102899190611093565b6108ca565b005b34801561029c57600080fd5b506102a56109da565b6040516102b29190610f43565b60405180910390f35b3480156102c757600080fd5b506102d06109e0565b6040516102dd9190610f43565b60405180910390f35b3480156102f257600080fd5b506102fb6109e6565b6040516103089190610ec7565b60405180910390f35b610319610a74565b005b34801561032757600080fd5b50610342600480360381019061033d9190610c7d565b610af5565b005b60008054906101000a900473ffffffffffffffffffffffffffffffffffffffff1673ffffffffffffffffffffffffffffffffffffffff163373ffffffffffffffffffffffffffffffffffffffff161461039c57600080fd5b600060086000838152602001908152602001600020905060026006546103c29190611160565b8160030154116103d157600080fd5b8060020160149054906101000a900460ff16156103ed57600080fd5b8060020160009054906101000a900473ffffffffffffffffffffffffffffffffffffffff1673ffffffffffffffffffffffffffffffffffffffff166108fc82600101549081150290604051600060405180830381858888f1935050505015801561045b573d6000803e3d6000fd5b5060018160020160146101000a81548160ff0219169083151502179055505050565b60056020528060005260406000206000915054906101000a900460ff1681565b600080600080600060608060606004544760075460065460008054906101000a900473ffffffffffffffffffffffffffffffffffffffff166002600360018280546104e7906111c0565b80601f0160208091040260200160405190810160405280929190818152602001828054610513906111c0565b80156105605780601f1061053557610100808354040283529160200191610560565b820191906000526020600020905b81548152906001019060200180831161054357829003601f168201915b50505050509250818054610573906111c0565b80601f016020809104026020016040519081016040528092919081815260200182805461059f906111c0565b80156105ec5780601f106105c1576101008083540402835291602001916105ec565b820191906000526020600020905b8154815290600101906020018083116105cf57829003601f168201915b505050505091508080546105ff906111c0565b80601f016020809104026020016040519081016040528092919081815260200182805461062b906111c0565b80156106785780601f1061064d57610100808354040283529160200191610678565b820191906000526020600020905b81548152906001019060200180831161065b57829003601f168201915b50505050509050975097509750975097509750975097509091929394959697565b60008054906101000a900473ffffffffffffffffffffffffffffffffffffffff1681565b600280546106ca906111c0565b80601f01602080910402602001604051908101604052809291908181526020018280546106f6906111c0565b80156107435780601f1061071857610100808354040283529160200191610743565b820191906000526020600020905b81548152906001019060200180831161072657829003601f168201915b505050505081565b60038054610758906111c0565b80601f0160208091040260200160405190810160405280929190818152602001828054610784906111c0565b80156107d15780601f106107a6576101008083540402835291602001916107d1565b820191906000526020600020905b8154815290600101906020018083116107b457829003601f168201915b505050505081565b60086020528060005260406000206000915090508060000180546107fc906111c0565b80601f0160208091040260200160405190810160405280929190818152602001828054610828906111c0565b80156108755780601f1061084a57610100808354040283529160200191610875565b820191906000526020600020905b81548152906001019060200180831161085857829003601f168201915b5050505050908060010154908060020160009054906101000a900473ffffffffffffffffffffffffffffffffffffffff16908060020160149054906101000a900460ff16908060030154905085565b60065481565b60008054906101000a900473ffffffffffffffffffffffffffffffffffffffff1673ffffffffffffffffffffffffffffffffffffffff163373ffffffffffffffffffffffffffffffffffffffff161461092257600080fd5b6000600860006007600081548092919061093b906111f1565b91905055815260200190815260200160002090508381600001908161096091906113e5565b50828160010181905550818160020160006101000a81548173ffffffffffffffffffffffffffffffffffffffff021916908373ffffffffffffffffffffffffffffffffffffffff16021790555060008160020160146101000a81548160ff0219169083151502179055506000816003018190555050505050565b60045481565b60075481565b600180546109f3906111c0565b80601f0160208091040260200160405190810160405280929190818152602001828054610a1f906111c0565b8015610a6c5780601f10610a4157610100808354040283529160200191610a6c565b820191906000526020600020905b815481529060010190602001808311610a4f57829003601f168201915b505050505081565b600454341015610a8357600080fd5b6001600560003373ffffffffffffffffffffffffffffffffffffffff1673ffffffffffffffffffffffffffffffffffffffff16815260200190815260200160002060006101000a81548160ff02191690831515021790555060066000815480929190610aee906111f1565b9190505550565b6000600860008381526020019081526020016000209050600560003373ffffffffffffffffffffffffffffffffffffffff1673ffffffffffffffffffffffffffffffffffffffff16815260200190815260200160002060009054906101000a900460ff16610b6257600080fd5b8060040160003373ffffffffffffffffffffffffffffffffffffffff1673ffffffffffffffffffffffffffffffffffffffff16815260200190815260200160002060009054906101000a900460ff1615610bbb57600080fd5b60018160040160003373ffffffffffffffffffffffffffffffffffffffff1673ffffffffffffffffffffffffffffffffffffffff16815260200190815260200160002060006101000a81548160ff021916908315150217905550806003016000815480929190610c2a906111f1565b91905055505050565b6000604051905090565b600080fd5b600080fd5b6000819050919050565b610c5a81610c47565b8114610c6557600080fd5b50565b600081359050610c7781610c51565b92915050565b600060208284031215610c9357610c92610c3d565b5b6000610ca184828501610c68565b91505092915050565b600073ffffffffffffffffffffffffffffffffffffffff82169050919050565b6000610cd582610caa565b9050919050565b610ce581610cca565b8114610cf057600080fd5b50565b600081359050610d0281610cdc565b92915050565b600060208284031215610d1e57610d1d610c3d565b5b6000610d2c84828501610cf3565b91505092915050565b60008115159050919050565b610d4a81610d35565b82525050565b6000602082019050610d656000830184610d41565b92915050565b610d7481610c47565b82525050565b610d8381610cca565b82525050565b600081519050919050565b600082825260208201905092915050565b60005b83811015610dc3578082015181840152602081019050610da8565b60008484015250505050565b6000601f19601f8301169050919050565b6000610deb82610d89565b610df58185610d94565b9350610e05818560208601610da5565b610e0e81610dcf565b840191505092915050565b600061010082019050610e2f600083018b610d6b565b610e3c602083018a610d6b565b610e496040830189610d6b565b610e566060830188610d6b565b610e636080830187610d7a565b81810360a0830152610e758186610de0565b905081810360c0830152610e898185610de0565b905081810360e0830152610e9d8184610de0565b90509998505050505050505050565b6000602082019050610ec16000830184610d7a565b92915050565b60006020820190508181036000830152610ee18184610de0565b905092915050565b600060a0820190508181036000830152610f038188610de0565b9050610f126020830187610d6b565b610f1f6040830186610d7a565b610f2c6060830185610d41565b610f396080830184610d6b565b9695505050505050565b6000602082019050610f586000830184610d6b565b92915050565b600080fd5b600080fd5b7f4e487b7100000000000000000000000000000000000000000000000000000000600052604160045260246000fd5b610fa082610dcf565b810181811067ffffffffffffffff82111715610fbf57610fbe610f68565b5b80604052505050565b6000610fd2610c33565b9050610fde8282610f97565b919050565b600067ffffffffffffffff821115610ffe57610ffd610f68565b5b61100782610dcf565b9050602081019050919050565b82818337600083830152505050565b600061103661103184610fe3565b610fc8565b90508281526020810184848401111561105257611051610f63565b5b61105d848285611014565b509392505050565b600082601f83011261107a57611079610f5e565b5b813561108a848260208601611023565b91505092915050565b6000806000606084860312156110ac576110ab610c3d565b5b600084013567ffffffffffffffff8111156110ca576110c9610c42565b5b6110d686828701611065565b93505060206110e786828701610c68565b92505060406110f886828701610cf3565b9150509250925092565b7f4e487b7100000000000000000000000000000000000000000000000000000000600052601260045260246000fd5b7f4e487b7100000000000000000000000000000000000000000000000000000000600052601160045260246000fd5b600061116b82610c47565b915061117683610c47565b92508261118657611185611102565b5b828204905092915050565b7f4e487b7100000000000000000000000000000000000000000000000000000000600052602260045260246000fd5b600060028204905060018216806111d857607f821691505b6020821081036111eb576111ea611191565b5b50919050565b60006111fc82610c47565b91507fffffffffffffffffffffffffffffffffffffffffffffffffffffffffffffffff820361122e5761122d611131565b5b600182019050919050565b60008190508160005260206000209050919050565b60006020601f8301049050919050565b600082821b905092915050565b60006008830261129b7fffffffffffffffffffffffffffffffffffffffffffffffffffffffffffffffff8261125e565b6112a5868361125e565b95508019841693508086168417925050509392505050565b6000819050919050565b60006112e26112dd6112d884610c47565b6112bd565b610c47565b9050919050565b6000819050919050565b6112fc836112c7565b611310611308826112e9565b84845461126b565b825550505050565b600090565b611325611318565b6113308184846112f3565b505050565b5b818110156113545761134960008261131d565b600181019050611336565b5050565b601f8211156113995761136a81611239565b6113738461124e565b81016020851015611382578190505b61139661138e8561124e565b830182611335565b50505b505050565b600082821c905092915050565b60006113bc6000198460080261139e565b1980831691505092915050565b60006113d583836113ab565b9150826002028217905092915050565b6113ee82610d89565b67ffffffffffffffff81111561140757611406610f68565b5b61141182546111c0565b61141c828285611358565b600060209050601f83116001811461144f576000841561143d578287015190505b61144785826113c9565b8655506114af565b601f19841661145d86611239565b60005b8281101561148557848901518255600182019150602085019450602081019050611460565b868310156114a2578489015161149e601f8916826113ab565b8355505b6001600288020188555050505b50505050505056fea2646970667358221220c8cb2d6c317ead0ca5f3825917cc9858e38909cb74af5743bbec7684b00e52fb64736f6c63430008110033a26469706673582212209d9ffb52c8391d5c3cf06bdda1ec838ae86aa51a97c63b29e9a2fa4de7b2a65064736f6c63430008110033",
  "linkReferences": {},
  "deployedLinkReferences": {}
}